:03000000020FC12B
:0C0FC100787FE4F6D8FD7581320210083C
:100F2C00456E74657220506173733A0041646D694B
:100F3C006E204D6F646521004163636573732047B8
:100F4C0072616E74656400446F6F72204F70656ED1
:100F5C0065642100436C6F73696E6720446F6F7218
:100F6C002E2E2E0041646D696E204D6F6465004E0F
:100F7C00657720506173733A0050617373776F72A9
:100F8C0064204368616E6765640057726F6E6720FA
:100F9C0050617373776F72640041646D696E205099
:100FAC006173733A00010203410405064207080904
:050FBC00432A0023445C
:10123E0001104E041601020304041C0000000001FC
:02124E00150089
:0C126100758901758CB7758AFED28C224D
:03000B00021224BA
:10122400C0E0B2A030A009E51AF58C851B8A8007BE
:0A123400E50AF58C850B8AD0E03244
:08104D007DE07F007E007C4085
:081055008F258E248D238C22CF
:10105D00752900752802752790752646E4FBFA79E7
:10106D00C87842AF29AE28AD27AC26120A01AB25B0
:10107D00AA24A923A8221208F8120ADC8E1A8F1BA3
:10108D00AC1AAD1BE4120AA3A804A905AA06AB0766
:10109D00AF29AE28AD27AC26120803120ADC8E0A42
:1010AD008F0BC374FF951BF51B74FF951AF51AC3AF
:0C10BD0074FF950BF50B74FF950AF50A03
:0110C9002204
:07127600D2A1D2A2C2A12205
:09126D00C2A2C2A1D2A2D2A122A8
:06125100440CFF121163C2
:0A125700C2A2D2A1D2A220A1FD2262
:02116300AD07D6
:10116500E4FCC2A27E007480A804088006CEA2E733
:1011750013CE13D8F8FFEDFBEF5B6003D38001C3FB
:0811850092A1D2A20CBC08DA11
:01118D00223F
:03127D008F1022AD
:051119001211E67F0148
:10111E00EFC454F0F522EF54F0F523121276AF100F
:10112E00121163121257E5231212511211E2E52326
:10113E0044081212537F0A7E001211E6E5221212A3
:10114E00511211E2E52244081212537F0A7E001258
:05115E0011E602126D14
:0610CA002FF8A6207F2A8A
:1010D000EFC454F0F525EF54F0F526121276AF1058
:1010E000121163121257E526440D1212531211E227
:1010F000E52644091212537F0A7E001211E6E52507
:10110000440D1212531211E2E52544091212537FC5
:091110000A7E001211E602126DC4
:06118E007BFF7A0F792CB3
:101194008B228A238924AB22AA23A924120C53600C
:1011A400130524E5247002052314F9120C53FF12CD
:0511B40010D080E222D2
:0411E2007F017E000B
:1011E600D3EF9400EE940040147D797C00ED1D70E1
:0D11F600011CED4C70F7EF1F70E61E80E34A
:0112030022C8
:101204007F0212111E7F2812111E7F0C12111E7FE5
:101214000612111E7F0112111E7F0A7E000211E6C2
:100E7D0078237C007D007BFF7A0F79B17E007F1097
:100E8D00120C2DD294D295D296D297E4FBEB70062C
:100E9D00C294D2958007BB010AD294C295D296D244
:100EAD00978018BB020AD294D295C296D297800B26
:100EBD00BB0308D294D295D296C297209005E4F543
:100ECD00228016209105752201800E209205752233
:100EDD0002800620933D7522037F147E001211E6D9
:100EED00EB7003309414BB010330950EBB0203303D
:100EFD009608EB6403701C2097193090FD3091FA21
:100F0D003092F73093F4EB25E025E024232522F8E9
:0E0F1D00E6FF220BEB64046003020E9A7FFFD6
:010F2B0022A3
:0611B9008B228A23892429
:1011BF00E4FFAB22AA23A9248F82758300120C6C43
:1011CF00FE74112FF8E66E60037F00220FBF04E25A
:0211DF007F018E
:0111E10022EB
:100CA700E4F5217F4E12127D1212047F8012111E6D
:100CB70012118ED2AFD2A9121261120E7D8F20E5CA
:100CC70020F460F6E520644170247515017F011258
:100CD700111E7F8012111E7BFF7A0F793812119433
:100CE7007FC012111E7BFF7A0F792C020E41E5207F
:100CF700C394005003020E4AE520D394094003022F
:100D07000E4AAF21052174111210CAE521B404AAB5
:100D1700E5157066FB7A0079161211B9EF605B7FF3
:100D2700C012111E7BFF7A0F79441211947FE87E5F
:100D3700031211197F8012111E7BFF7A0F7953124C
:100D4700119412104D7F907E011211E67D00121052
:100D57004F7F887E131211197F8012111E7BFF7A35
:100D67000F79601211947F207E031211E612104D45
:100D77007F907E011211E6020E25E51564016003DE
:100D8700020E17FB7A00791C1211B9EF7003020EDD
:100D9700177FC012111E7BFF7A0F7970121194759D
:100DA70015017FC87E001211197F8012111E7BFF6B
:100DB7007A0F797B121194E4F521E521C39404504D
:100DC70023120E7D8F20E520F460EFE520C3940009
:100DD70040E8E520D3940950E1AF210521740C12B6
:100DE70010CA80D6E4FF740C2FF8E6FE74162FF8AD
:100DF700A6060FBF04F07FC012111E7BFF7A0F7982
:100E0700851211947FB07E041211E6E4F515800E69
:100E17007FC012111E7BFF7A0F79961211947FD033
:100E27007E071211197F8012111EE5157BFF6006E0
:100E37007A0F79A580047A0F792C121194E4F521A1
:100E4700020CC1E52064436003020CC1F5217F0158
:100E570012111E7F8012111EE51560147BFF7A0F99
:100E670079381211947FC012111E12118E020CC113
:060E770012118E020CC1F5
:10080000020B48E86480F8E933E83360110460F0D3
:10081000ED33EC337009E8FCE9FDEAFEEBFF22045E
:1008200060DED3EB9FEA9EE99DE8C2E78CF0C2F759
:1008300095F0400CE8CCF8E9CDF9EACEFAEBCFFB25
:10084000120B1385D0F05804700320D5B3E8047060
:10085000075002B2D5020B5292D5EC0460F7E4CCFB
:10086000C0E0C398F8603B94186008400DD0E0FBEE
:10087000020B2AE4FBFAC9FC8028E830E406E4C94C
:10088000FBE4CAFCE830E305E4C9CACBFCE8540742
:100890006010F8C3E913F9EA13FAEB13FBEC13FC4D
:1008A000D8F130F52FC3E49CFCEF9BFFEE9AFEEDF0
:1008B00099FDD0E0FBEF4E4D4C701222DB03020B92
:1008C0004FEC2CFCEF33FFEE33FEED33FDED30E764
:1008D000EB020B2AEF2BFFEE3AFEED39FDD0E0FBE9
:1008E00050130BBB0003020B52ED13FDEE13FEEF92
:0808F00013FFEC13FC020B2ABC
:1008F800EC4D6011E8497017ED33EC3304600DE4FA
:10090800FCFFFEFD22E933E8330470F8020B4812BD
:100918000B1358046009E4CC2481500628500902BE
:100928000B52284003020B4FC0E0EB4A7044B980D9
:1009380006D0E0FB020B3EEF4E701CBD8008EBFFBB
:10094800EAFEE9FD80EBE98DF0A4FEE5F00209E19D
:10095800E9CDF9EAFEEBFFEF89F0A4FCE5F0CE89DA
:10096800F0A42EFFE435F0CD89F0A42DFEE435F097
:100978008067EF4E7005BD80D780C3EF8BF0A4ACC5
:10098800F0EE8BF0A42CFCE435F0F8EF8AF0A42C00
:10099800E5F038FCE433CB8DF0A42CFCE5F03BF813
:1009A800EE8AF0A42CFCE5F038F8E433CF89F0A403
:1009B8002CFCE5F038CF3400CE89F0A42FFFE5F009
:1009C8003EFEE433C98DF0A42EFEE5F039CD8AF061
:1009D800A42FFFE5F03EFEE43DFD33D0E0FB5007D9
:1009E8000BBB000F020B52EC2CFCEF33FFEE33FE77
:0609F800ED33FD020B2AA5
:1009FE00020B52EC5D046005E859047003020B48CB
:100A0E00120B13580460F6EC4860F2EC7004FDFE15
:100A1E00FF22C860DB2481C85009C39860025006CB
:100A2E00020B4F9850CAF582E9294B4A7005AB82EA
:100A3E00020B3E75F0007C1A7880C3EF9BEE9AEDA8
:100A4E0099400DC3EF9BFFEE9AFEED99FDE842F043
:100A5E00DC23ACF0D0E0FFD0E0FED0E0FDAB822096
:100A6E00E7101BEB60BAEC2CFCEF33FFEE33FEED20
:100A7E0033FD020B2AE803F830E705C0F075F000ED
:100A8E00EF2FFFEE33FEED33FD40B830E7C280AA04
:100A9E0075F020800E75F010800575F0087D007ED3
:100AAE00007F003392D530D503120C99EC334010F1
:100ABE00EF33FFEE33FEED33FDEC33FCD5F0ED22DC
:0E0ACE00E5F0247EA2D513CC92E7CDCEFF2218
:100ADC00EDD2E7CD33EC3392D524814006E4FFFE12
:100AEC00FDFC22FCE4CFCECDCC24E0501174FF8071
:100AFC00EDC3CC13CCCD13CDCE13CECF13CF04700E
:070B0C00F030D5DE020C9968
:100B1300E9D2E7C933E833F892D5EDD2E7CD33EC28
:070B230033FC5002B2D522A1
:100B2A00EC30E7100FBF000C0EBE00080DBD00042C
:100B3A000BEB6014A2D5EB13FCED92E7FD2274FFD8
:100B4A00FCFDFEFF22E480F8A2D574FF13FC7D8031
:030B5A00E480EF45
:100FCD00020CA7E493A3F8E493A34003F68001F287
:100FDD0008DFF48029E493A3F85407240CC8C33325
:100FED00C4540F4420C8834004F456800146F6DFF4
:100FFD00E4800B010204081020408090123EE47E34
:10100D00019360BCA3FF543F30E509541FFEE493E8
:10101D00A360010ECF54C025E060A840B8E493A3AF
:10102D00FAE493A3F8E493A3C8C582C8CAC583CADA
:10103D00F0A3C8C582C8CAC583CADFE9DEE780BE92
:01125000009D
:100B5D00E709F608DFFA8046E709F208DFFA803E7A
:100B6D0088828C83E709F0A3DFFA8032E309F60867
:100B7D00DFFA8078E309F208DFFA807088828C83CF
:100B8D00E309F0A3DFFA806489828A83E0A3F60883
:100B9D00DFFA805889828A83E0A3F208DFFA804C5D
:100BAD0080D280FA80C680D4806980F28033801034
:100BBD0080A680EA809A80A880DA80E280CA80339D
:100BCD0089828A83ECFAE493A3C8C582C8CCC58315
:100BDD00CCF0A3C8C582C8CCC583CCDFE9DEE780E5
:100BED000D89828A83E493A3F608DFF9ECFAA9F064
:100BFD00EDFB2289828A83ECFAE0A3C8C582C8CCBA
:100C0D00C583CCF0A3C8C582C8CCC583CCDFEADED2
:100C1D00E880DB89828A83E493A3F208DFF980CC34
:100C2D0088F0EF60010E4E60C388F0ED2402B4042D
:100C3D000050B9F582EB2402B4040050AF232345D4
:060C4D008223900BAD7341
:100C5300BB010689828A83E0225002E722BBFE029F
:090C6300E32289828A83E49322D2
:100C6C00BB010CE58229F582E5833AF583E022503D
:100C7C0006E92582F8E622BBFE06E92582F8E22287
:0D0C8C00E58229F582E5833AF583E49322A1
:0E0C9900C3E49FFFE49EFEE49DFDE49CFC226C
:00000001FF
